{
  "abi": [
    {
      "inputs": [
        {
          "internalType": "address",
          "name": "_addressProvider",
          "type": "address"
        }
      ],
      "stateMutability": "nonpayable",
      "type": "constructor"
    },
    {
      "inputs": [],
      "name": "ADDRESSES_PROVIDER",
      "outputs": [
        {
          "internalType": "contract IPoolAddressesProvider",
          "name": "",
          "type": "address"
        }
      ],
      "stateMutability": "view",
      "type": "function"
    },
    {
      "inputs": [],
      "name": "POOL",
      "outputs": [
        {
          "internalType": "contract IPool",
          "name": "",
          "type": "address"
        }
      ],
      "stateMutability": "view",
      "type": "function"
    },
    {
      "inputs": [
        {
          "internalType": "address",
          "name": "asset",
          "type": "address"
        },
        {
          "internalType": "uint256",
          "name": "amount",
          "type": "uint256"
        },
        {
          "internalType": "uint256",
          "name": "premium",
          "type": "uint256"
        },
        {
          "internalType": "address",
          "name": "initiator",
          "type": "address"
        },
        {
          "internalType": "bytes",
          "name": "params",
          "type": "bytes"
        }
      ],
      "name": "executeOperation",
      "outputs": [
        {
          "internalType": "bool",
          "name": "",
          "type": "bool"
        }
      ],
      "stateMutability": "nonpayable",
      "type": "function"
    },
    {
      "inputs": [
        {
          "internalType": "address",
          "name": "_tokenAddress",
          "type": "address"
        }
      ],
      "name": "getBalance",
      "outputs": [
        {
          "internalType": "uint256",
          "name": "",
          "type": "uint256"
        }
      ],
      "stateMutability": "view",
      "type": "function"
    },
    {
      "inputs": [
        {
          "internalType": "address",
          "name": "_token",
          "type": "address"
        },
        {
          "internalType": "uint256",
          "name": "_amount",
          "type": "uint256"
        }
      ],
      "name": "requestFlashLoan",
      "outputs": [],
      "stateMutability": "nonpayable",
      "type": "function"
    },
    {
      "inputs": [
        {
          "internalType": "address",
          "name": "_tokenAddress",
          "type": "address"
        }
      ],
      "name": "withdraw",
      "outputs": [],
      "stateMutability": "nonpayable",
      "type": "function"
    },
    {
      "stateMutability": "payable",
      "type": "receive"
    }
  ],
  "bytecode": {
    "object": "0x60c060405234801561001057600080fd5b5060405161080a38038061080a83398101604081905261002f916100d1565b80806001600160a01b03166080816001600160a01b031681525050806001600160a01b031663026b1d5f6040518163ffffffff1660e01b8152600401602060405180830381865afa158015610088573d6000803e3d6000fd5b505050506040513d601f19601f820116820180604052508101906100ac91906100d1565b6001600160a01b031660a0525050600080546001600160a01b03191633179055610101565b6000602082840312156100e357600080fd5b81516001600160a01b03811681146100fa57600080fd5b9392505050565b60805160a0516106d76101336000396000818161011a015281816101ae01526103ca01526000607701526106d76000f3fe6080604052600436106100595760003560e01c80630542975c146100655780631b11d0ff146100b657806351cff8d9146100e65780637535d24614610108578063d54ba9541461013c578063f8b2cb4f1461015c57600080fd5b3661006057005b600080fd5b34801561007157600080fd5b506100997f000000000000000000000000000000000000000000000000000000000000000081565b6040516001600160a01b0390911681526020015b60405180910390f35b3480156100c257600080fd5b506100d66100d13660046104cf565b61018a565b60405190151581526020016100ad565b3480156100f257600080fd5b50610106610101366004610575565b61023f565b005b34801561011457600080fd5b506100997f000000000000000000000000000000000000000000000000000000000000000081565b34801561014857600080fd5b50610106610157366004610597565b61039c565b34801561016857600080fd5b5061017c610177366004610575565b610442565b6040519081526020016100ad565b60008061019786886105c1565b60405163095ea7b360e01b81526001600160a01b037f000000000000000000000000000000000000000000000000000000000000000081166004830152602482018390529192509089169063095ea7b3906044016020604051808303816000875af115801561020a573d6000803e3d6000fd5b505050506040513d601f19601f8201168201806040525081019061022e91906105e7565b5060019150505b9695505050505050565b6000546001600160a01b031633146102b45760405162461bcd60e51b815260206004820152602e60248201527f4f6e6c792074686520636f6e7472616374206f776e65722063616e2063616c6c60448201526d103a3434b990333ab731ba34b7b760911b606482015260840160405180910390fd5b6040516370a0823160e01b815230600482015281906001600160a01b0382169063a9059cbb90339083906370a0823190602401602060405180830381865afa158015610304573d6000803e3d6000fd5b505050506040513d601f19601f820116820180604052508101906103289190610609565b6040516001600160e01b031960e085901b1681526001600160a01b03909216600483015260248201526044016020604051808303816000875af1158015610373573d6000803e3d6000fd5b505050506040513d601f19601f8201168201806040525081019061039791906105e7565b505050565b60408051602081018252600080825291516310ac2ddf60e21b81523092859285929091906001600160a01b037f000000000000000000000000000000000000000000000000000000000000000016906342b0b77c906104079088908890889088908890600401610622565b600060405180830381600087803b15801561042157600080fd5b505af1158015610435573d6000803e3d6000fd5b5050505050505050505050565b6040516370a0823160e01b81523060048201526000906001600160a01b038316906370a0823190602401602060405180830381865afa158015610489573d6000803e3d6000fd5b505050506040513d601f19601f820116820180604052508101906104ad9190610609565b92915050565b80356001600160a01b03811681146104ca57600080fd5b919050565b60008060008060008060a087890312156104e857600080fd5b6104f1876104b3565b9550602087013594506040870135935061050d606088016104b3565b9250608087013567ffffffffffffffff8082111561052a57600080fd5b818901915089601f83011261053e57600080fd5b81358181111561054d57600080fd5b8a602082850101111561055f57600080fd5b6020830194508093505050509295509295509295565b60006020828403121561058757600080fd5b610590826104b3565b9392505050565b600080604083850312156105aa57600080fd5b6105b3836104b3565b946020939093013593505050565b600082198211156105e257634e487b7160e01b600052601160045260246000fd5b500190565b6000602082840312156105f957600080fd5b8151801515811461059057600080fd5b60006020828403121561061b57600080fd5b5051919050565b600060018060a01b03808816835260208188168185015286604085015260a06060850152855191508160a085015260005b8281101561066f5786810182015185820160c001528101610653565b8281111561068157600060c084870101525b5050601f01601f1916820160c0019050610235608083018461ffff16905256fea2646970667358221220ff2eeb68e3b83120ac8deee1ad3fda1b952c60ad7d6e36b92616e3ef78db0d4c64736f6c634300080a0033",
    "linkReferences": {}
  },
  "methodIdentifiers": {
    "ADDRESSES_PROVIDER()": "0542975c",
    "POOL()": "7535d246",
    "executeOperation(address,uint256,uint256,address,bytes)": "1b11d0ff",
    "getBalance(address)": "f8b2cb4f",
    "requestFlashLoan(address,uint256)": "d54ba954",
    "withdraw(address)": "51cff8d9"
  },
  "id": 7
}