{
  "abi": [
    {
      "inputs": [],
      "name": "checkFree",
      "outputs": [
        {
          "internalType": "uint256",
          "name": "",
          "type": "uint256"
        }
      ],
      "stateMutability": "view",
      "type": "function"
    },
    {
      "inputs": [],
      "name": "checkNotFree",
      "outputs": [
        {
          "internalType": "uint256",
          "name": "",
          "type": "uint256"
        }
      ],
      "stateMutability": "nonpayable",
      "type": "function"
    },
    {
      "inputs": [],
      "name": "count",
      "outputs": [
        {
          "internalType": "uint256",
          "name": "",
          "type": "uint256"
        }
      ],
      "stateMutability": "view",
      "type": "function"
    },
    {
      "inputs": [],
      "name": "incrase",
      "outputs": [],
      "stateMutability": "nonpayable",
      "type": "function"
    },
    {
      "inputs": [
        {
          "internalType": "uint256",
          "name": "x",
          "type": "uint256"
        }
      ],
      "name": "incraseByX",
      "outputs": [],
      "stateMutability": "nonpayable",
      "type": "function"
    }
  ],
  "bytecode": {
    "object": "0x608060405234801561001057600080fd5b50610185806100206000396000f3fe608060405234801561001057600080fd5b50600436106100575760003560e01c806306661abd1461005c578063380f6169146100775780633d7daad41461008c5780638931672c14610094578063c27aa96b1461009c575b600080fd5b61006560005481565b60405190815260200160405180910390f35b61008a6100853660046100ef565b6100a4565b005b61008a6100b8565b600054610065565b6100656100ce565b806000546100b2919061011e565b60005550565b6000805490806100c783610136565b9190505550565b600060016000808282546100e2919061011e565b9091555050600054919050565b60006020828403121561010157600080fd5b5035919050565b634e487b7160e01b600052601160045260246000fd5b6000821982111561013157610131610108565b500190565b60006001820161014857610148610108565b506001019056fea26469706673582212206567171e103f62e72f66dcb43076f177605bdcf3ad8ae5b302402871dc77980864736f6c634300080f0033",
    "linkReferences": {}
  },
  "methodIdentifiers": {
    "checkFree()": "8931672c",
    "checkNotFree()": "c27aa96b",
    "count()": "06661abd",
    "incrase()": "3d7daad4",
    "incraseByX(uint256)": "380f6169"
  },
  "id": 8
}