{
  "abi": [
    {
      "inputs": [
        {
          "internalType": "contract UniswapV2Factory",
          "name": "_uniswapFactory",
          "type": "address"
        },
        {
          "internalType": "uint256",
          "name": "_start",
          "type": "uint256"
        },
        {
          "internalType": "uint256",
          "name": "_stop",
          "type": "uint256"
        }
      ],
      "name": "getPairsByIndexRange",
      "outputs": [
        {
          "internalType": "address[3][]",
          "name": "",
          "type": "address[3][]"
        }
      ],
      "stateMutability": "view",
      "type": "function"
    },
    {
      "inputs": [
        {
          "internalType": "contract IUniswapV2Pair[]",
          "name": "_pairs",
          "type": "address[]"
        }
      ],
      "name": "getReservesByPairs",
      "outputs": [
        {
          "internalType": "uint256[3][]",
          "name": "",
          "type": "uint256[3][]"
        }
      ],
      "stateMutability": "view",
      "type": "function"
    }
  ],
  "bytecode": {
    "object": "0x608060405234801561001057600080fd5b5061082d806100206000396000f3fe608060405234801561001057600080fd5b50600436106100365760003560e01c80634dbf0f391461003b578063ab2217e414610064575b600080fd5b61004e610049366004610594565b610084565b60405161005b9190610730565b60405180910390f35b61007761007236600461061f565b61021c565b60405161005b91906106bf565b6060808267ffffffffffffffff8111801561009e57600080fd5b506040519080825280602002602001820160405280156100d857816020015b6100c5610553565b8152602001906001900390816100bd5790505b50905060005b83811015610214578484828181106100f257fe5b90506020020160208101906101079190610603565b6001600160a01b0316630902f1ac6040518163ffffffff1660e01b815260040160606040518083038186803b15801561013f57600080fd5b505afa158015610153573d6000803e3d6000fd5b505050506040513d601f19601f820116820180604052508101906101779190610653565b826001600160701b03169250816001600160701b031691508063ffffffff1690508484815181106101a457fe5b60200260200101516000600381106101b857fe5b602002018585815181106101c857fe5b60200260200101516001600381106101dc57fe5b602002018686815181106101ec57fe5b602002602001015160026003811061020057fe5b6020020192909252919052526001016100de565b509392505050565b60606000846001600160a01b031663574f2ba36040518163ffffffff1660e01b815260040160206040518083038186803b15801561025957600080fd5b505afa15801561026d573d6000803e3d6000fd5b505050506040513d601f19601f8201168201806040525081019061029191906106a7565b90508083111561029f578092505b838310156102c85760405162461bcd60e51b81526004016102bf9061078c565b60405180910390fd5b83830360608167ffffffffffffffff811180156102e457600080fd5b5060405190808252806020026020018201604052801561031e57816020015b61030b610553565b8152602001906001900390816103035790505b50905060005b8281101561054857604051631e3dd18b60e01b81526000906001600160a01b038a1690631e3dd18b9061035d908b8601906004016107c1565b60206040518083038186803b15801561037557600080fd5b505afa158015610389573d6000803e3d6000fd5b505050506040513d601f19601f820116820180604052508101906103ad9190610571565b9050806001600160a01b0316630dfe16816040518163ffffffff1660e01b815260040160206040518083038186803b1580156103e857600080fd5b505afa1580156103fc573d6000803e3d6000fd5b505050506040513d601f19601f820116820180604052508101906104209190610571565b83838151811061042c57fe5b602002602001015160006003811061044057fe5b60200201906001600160a01b031690816001600160a01b031681525050806001600160a01b031663d21220a76040518163ffffffff1660e01b815260040160206040518083038186803b15801561049657600080fd5b505afa1580156104aa573d6000803e3d6000fd5b505050506040513d601f19601f820116820180604052508101906104ce9190610571565b8383815181106104da57fe5b60200260200101516001600381106104ee57fe5b60200201906001600160a01b031690816001600160a01b0316815250508083838151811061051857fe5b602002602001015160026003811061052c57fe5b6001600160a01b03909216602092909202015250600101610324565b509695505050505050565b60405180606001604052806003906020820280368337509192915050565b600060208284031215610582578081fd5b815161058d816107ca565b9392505050565b600080602083850312156105a6578081fd5b823567ffffffffffffffff808211156105bd578283fd5b818501915085601f8301126105d0578283fd5b8135818111156105de578384fd5b86602080830285010111156105f1578384fd5b60209290920196919550909350505050565b600060208284031215610614578081fd5b813561058d816107ca565b600080600060608486031215610633578081fd5b833561063e816107ca565b95602085013595506040909401359392505050565b600080600060608486031215610667578283fd5b8351610672816107e2565b6020850151909350610683816107e2565b604085015190925063ffffffff8116811461069c578182fd5b809150509250925092565b6000602082840312156106b8578081fd5b5051919050565b6020808252825182820181905260009190848201906040850190845b8181101561072457835183875b600381101561070e5782516001600160a01b0316825291870191908701906001016106e8565b50505092840192606092909201916001016106db565b50909695505050505050565b6020808252825182820181905260009190848201906040850190845b8181101561072457835183875b600381101561077657825182529187019190870190600101610759565b505050928401926060929092019160010161074c565b6020808252818101527f73746172742063616e6e6f7420626520686967686572207468616e2073746f70604082015260600190565b90815260200190565b6001600160a01b03811681146107df57600080fd5b50565b6001600160701b03811681146107df57600080fdfea2646970667358221220fd88b23e30fb31f6cdc661e171313a6d8611f0600f220057fbf896bf4fb1035c64736f6c634300060c0033",
    "linkReferences": {}
  },
  "methodIdentifiers": {
    "getPairsByIndexRange(address,uint256,uint256)": "ab2217e4",
    "getReservesByPairs(address[])": "4dbf0f39"
  },
  "id": 10
}