{
  "abi": [
    {
      "inputs": [
        {
          "internalType": "address",
          "name": "_executor",
          "type": "address"
        },
        {
          "internalType": "address",
          "name": "_weth",
          "type": "address"
        },
        {
          "internalType": "address",
          "name": "_provider",
          "type": "address"
        }
      ],
      "stateMutability": "payable",
      "type": "constructor"
    },
    {
      "inputs": [],
      "name": "ADDRESSES_PROVIDER",
      "outputs": [
        {
          "internalType": "contract IPoolAddressesProvider",
          "name": "",
          "type": "address"
        }
      ],
      "stateMutability": "view",
      "type": "function"
    },
    {
      "inputs": [],
      "name": "POOL",
      "outputs": [
        {
          "internalType": "contract IPool",
          "name": "",
          "type": "address"
        }
      ],
      "stateMutability": "view",
      "type": "function"
    },
    {
      "inputs": [
        {
          "internalType": "address",
          "name": "asset",
          "type": "address"
        },
        {
          "internalType": "uint256",
          "name": "amount",
          "type": "uint256"
        },
        {
          "internalType": "uint256",
          "name": "premium",
          "type": "uint256"
        },
        {
          "internalType": "address",
          "name": "initiator",
          "type": "address"
        },
        {
          "internalType": "bytes",
          "name": "params",
          "type": "bytes"
        }
      ],
      "name": "executeOperation",
      "outputs": [
        {
          "internalType": "bool",
          "name": "",
          "type": "bool"
        }
      ],
      "stateMutability": "nonpayable",
      "type": "function"
    },
    {
      "inputs": [],
      "name": "executor",
      "outputs": [
        {
          "internalType": "address",
          "name": "",
          "type": "address"
        }
      ],
      "stateMutability": "view",
      "type": "function"
    },
    {
      "inputs": [
        {
          "internalType": "address",
          "name": "_tokenAddress",
          "type": "address"
        }
      ],
      "name": "getBalance",
      "outputs": [
        {
          "internalType": "uint256",
          "name": "",
          "type": "uint256"
        }
      ],
      "stateMutability": "view",
      "type": "function"
    },
    {
      "inputs": [],
      "name": "owner",
      "outputs": [
        {
          "internalType": "address payable",
          "name": "",
          "type": "address"
        }
      ],
      "stateMutability": "view",
      "type": "function"
    },
    {
      "inputs": [
        {
          "internalType": "address",
          "name": "_token",
          "type": "address"
        },
        {
          "internalType": "uint256",
          "name": "_ethAmountToCoinbase",
          "type": "uint256"
        },
        {
          "internalType": "uint256",
          "name": "_flashLoanAmount",
          "type": "uint256"
        },
        {
          "internalType": "address[]",
          "name": "_targets",
          "type": "address[]"
        },
        {
          "internalType": "bytes[]",
          "name": "_payloads",
          "type": "bytes[]"
        }
      ],
      "name": "swapWithFlashLoan",
      "outputs": [],
      "stateMutability": "payable",
      "type": "function"
    },
    {
      "inputs": [
        {
          "internalType": "uint256",
          "name": "_wethAmountToFirstMarket",
          "type": "uint256"
        },
        {
          "internalType": "uint256",
          "name": "_ethAmountToCoinbase",
          "type": "uint256"
        },
        {
          "internalType": "address[]",
          "name": "_targets",
          "type": "address[]"
        },
        {
          "internalType": "bytes[]",
          "name": "_payloads",
          "type": "bytes[]"
        }
      ],
      "name": "swapWithoutFlashLoan",
      "outputs": [],
      "stateMutability": "payable",
      "type": "function"
    },
    {
      "inputs": [
        {
          "internalType": "address",
          "name": "_tokenAddress",
          "type": "address"
        }
      ],
      "name": "withdraw",
      "outputs": [],
      "stateMutability": "nonpayable",
      "type": "function"
    },
    {
      "stateMutability": "payable",
      "type": "receive"
    }
  ],
  "bytecode": {
    "object": "0x610120604052604051620018253803806200182583398101604081905262000027916200014d565b80806001600160a01b03166080816001600160a01b031681525050806001600160a01b031663026b1d5f6040518163ffffffff1660e01b8152600401602060405180830381865afa15801562000081573d6000803e3d6000fd5b505050506040513d601f19601f82011682018060405250810190620000a7919062000197565b6001600160a01b0390811660a052838116610100523360c052841660e0525034156200012757610100516001600160a01b031663d0e30db0346040518263ffffffff1660e01b81526004016000604051808303818588803b1580156200010c57600080fd5b505af115801562000121573d6000803e3d6000fd5b50505050505b505050620001bc565b80516001600160a01b03811681146200014857600080fd5b919050565b6000806000606084860312156200016357600080fd5b6200016e8462000130565b92506200017e6020850162000130565b91506200018e6040850162000130565b90509250925092565b600060208284031215620001aa57600080fd5b620001b58262000130565b9392505050565b60805160a05160c05160e051610100516115d86200024d600039600081816105d80152818161064701528181610805015281816108d601528181610b7e01528181610cb90152610d900152600081816101c6015281816105220152610ac001526000818161019201526109a301526000818161015e015281816104850152610c330152600060a801526115d86000f3fe60806040526004361061008a5760003560e01c80637535d246116100595780637535d2461461014c5780638da5cb5b14610180578063c34c08e5146101b4578063c7735f90146101e8578063f8b2cb4f146101fb57600080fd5b80630542975c146100965780631b11d0ff146100e75780634686fb9e1461011757806351cff8d91461012c57600080fd5b3661009157005b600080fd5b3480156100a257600080fd5b506100ca7f000000000000000000000000000000000000000000000000000000000000000081565b6040516001600160a01b0390911681526020015b60405180910390f35b3480156100f357600080fd5b50610107610102366004611086565b610229565b60405190151581526020016100de565b61012a6101253660046112ed565b610517565b005b34801561013857600080fd5b5061012a610147366004611364565b610998565b34801561015857600080fd5b506100ca7f000000000000000000000000000000000000000000000000000000000000000081565b34801561018c57600080fd5b506100ca7f000000000000000000000000000000000000000000000000000000000000000081565b3480156101c057600080fd5b506100ca7f000000000000000000000000000000000000000000000000000000000000000081565b61012a6101f6366004611386565b610ab5565b34801561020757600080fd5b5061021b610216366004611364565b610e58565b6040519081526020016100de565b60408051600180546060602082028401810185529383018181526000948594939284929184919084018282801561028957602002820191906000526020600020905b81546001600160a01b0316815260019091019060200180831161026b575b5050505050815260200160018201805480602002602001604051908101604052809291908181526020016000905b828210156103635783829060005260206000200180546102d69061140e565b80601f01602080910402602001604051908101604052809291908181526020018280546103029061140e565b801561034f5780601f106103245761010080835404028352916020019161034f565b820191906000526020600020905b81548152906001019060200180831161033257829003601f168201915b5050505050815260200190600101906102b7565b50505091525050805160208201519192509060005b82518110156104615760008084838151811061039657610396611449565b60200260200101516001600160a01b03168484815181106103b9576103b9611449565b60200260200101516040516103ce919061148b565b6000604051808303816000865af19150503d806000811461040b576040519150601f19603f3d011682016040523d82523d6000602084013e610410565b606091505b50915091508161044c5760405162461bcd60e51b8152602060048201526002602482015261434560f01b60448201526064015b60405180910390fd5b50508080610459906114bd565b915050610378565b50600061046e898b6114d8565b60405163095ea7b360e01b81526001600160a01b037f00000000000000000000000000000000000000000000000000000000000000008116600483015260248201839052919250908c169063095ea7b3906044016020604051808303816000875af11580156104e1573d6000803e3d6000fd5b505050506040513d601f19601f8201168201806040525081019061050591906114f0565b5060019b9a5050505050505050505050565b336001600160a01b037f000000000000000000000000000000000000000000000000000000000000000016146105785760405162461bcd60e51b8152600401610443906020808252600490820152634f4e656560e01b604082015260600190565b80518251146105ae5760405162461bcd60e51b815260206004820152600260248201526115d360f21b6044820152606401610443565b6000805460ff191660011781556040516370a0823160e01b81523060048201526001600160a01b037f000000000000000000000000000000000000000000000000000000000000000016906370a0823190602401602060405180830381865afa15801561061f573d6000803e3d6000fd5b505050506040513d601f19601f820116820180604052508101906106439190611512565b90507f00000000000000000000000000000000000000000000000000000000000000006001600160a01b031663a9059cbb8460008151811061068757610687611449565b6020026020010151876040518363ffffffff1660e01b81526004016106c19291906001600160a01b03929092168252602082015260400190565b6020604051808303816000875af11580156106e0573d6000803e3d6000fd5b505050506040513d601f19601f8201168201806040525081019061070491906114f0565b5060005b83518110156107ec5760008085838151811061072657610726611449565b60200260200101516001600160a01b031685848151811061074957610749611449565b602002602001015160405161075e919061148b565b6000604051808303816000865af19150503d806000811461079b576040519150601f19603f3d011682016040523d82523d6000602084013e6107a0565b606091505b5091509150816107d75760405162461bcd60e51b8152602060048201526002602482015261434560f01b6044820152606401610443565b505080806107e4906114bd565b915050610708565b506040516370a0823160e01b81523060048201526000907f00000000000000000000000000000000000000000000000000000000000000006001600160a01b0316906370a0823190602401602060405180830381865afa158015610854573d6000803e3d6000fd5b505050506040513d601f19601f820116820180604052508101906108789190611512565b905061088485836114d8565b81116108b75760405162461bcd60e51b8152602060048201526002602482015261042360f41b6044820152606401610443565b846108c3575050610992565b4785811015610956576001600160a01b037f000000000000000000000000000000000000000000000000000000000000000016632e1a7d4d610905838961152b565b6040518263ffffffff1660e01b815260040161092391815260200190565b600060405180830381600087803b15801561093d57600080fd5b505af1158015610951573d6000803e3d6000fd5b505050505b604051419087156108fc029088906000818181858888f19350505050158015610983573d6000803e3d6000fd5b50506000805460ff1916905550505b50505050565b336001600160a01b037f000000000000000000000000000000000000000000000000000000000000000016146109cd57600080fd5b6040516370a0823160e01b815230600482015281906001600160a01b0382169063a9059cbb90339083906370a0823190602401602060405180830381865afa158015610a1d573d6000803e3d6000fd5b505050506040513d601f19601f82011682018060405250810190610a419190611512565b6040516001600160e01b031960e085901b1681526001600160a01b03909216600483015260248201526044016020604051808303816000875af1158015610a8c573d6000803e3d6000fd5b505050506040513d601f19601f82011682018060405250810190610ab091906114f0565b505050565b336001600160a01b037f00000000000000000000000000000000000000000000000000000000000000001614610b165760405162461bcd60e51b8152600401610443906020808252600490820152634f4e656560e01b604082015260600190565b60408051602081019091526000808252825184513093899388939192909114610b665760405162461bcd60e51b815260206004820152600260248201526115d360f21b6044820152606401610443565b6040516370a0823160e01b81523060048201526000907f00000000000000000000000000000000000000000000000000000000000000006001600160a01b0316906370a0823190602401602060405180830381865afa158015610bcd573d6000803e3d6000fd5b505050506040513d601f19601f82011682018060405250810190610bf19190611512565b8751909150610c079060029060208a0190610ec9565b508751610c1b9060019060208b0190610f26565b506040516310ac2ddf60e21b81526001600160a01b037f000000000000000000000000000000000000000000000000000000000000000016906342b0b77c90610c709089908990899089908990600401611542565b600060405180830381600087803b158015610c8a57600080fd5b505af1158015610c9e573d6000803e3d6000fd5b50506040516370a0823160e01b8152306004820152600092507f00000000000000000000000000000000000000000000000000000000000000006001600160a01b031691506370a0823190602401602060405180830381865afa158015610d09573d6000803e3d6000fd5b505050506040513d601f19601f82011682018060405250810190610d2d9190611512565b9050610d398b836114d8565b8111610d6c5760405162461bcd60e51b8152602060048201526002602482015261042360f41b6044820152606401610443565b8a610d7d5750505050505050610e51565b478b811015610e10576001600160a01b037f000000000000000000000000000000000000000000000000000000000000000016632e1a7d4d610dbf838f61152b565b6040518263ffffffff1660e01b8152600401610ddd91815260200190565b600060405180830381600087803b158015610df757600080fd5b505af1158015610e0b573d6000803e3d6000fd5b505050505b60405141908d156108fc02908e906000818181858888f19350505050158015610e3d573d6000803e3d6000fd5b50506000805460ff19169055505050505050505b5050505050565b6040516370a0823160e01b81523060048201526000906001600160a01b038316906370a0823190602401602060405180830381865afa158015610e9f573d6000803e3d6000fd5b505050506040513d601f19601f82011682018060405250810190610ec39190611512565b92915050565b828054828255906000526020600020908101928215610f16579160200282015b82811115610f165782518051610f06918491602090910190610f87565b5091602001919060010190610ee9565b50610f22929150610ffb565b5090565b828054828255906000526020600020908101928215610f7b579160200282015b82811115610f7b57825182546001600160a01b0319166001600160a01b03909116178255602090920191600190910190610f46565b50610f22929150611018565b828054610f939061140e565b90600052602060002090601f016020900481019282610fb55760008555610f7b565b82601f10610fce57805160ff1916838001178555610f7b565b82800160010185558215610f7b579182015b82811115610f7b578251825591602001919060010190610fe0565b80821115610f2257600061100f828261102d565b50600101610ffb565b5b80821115610f225760008155600101611019565b5080546110399061140e565b6000825580601f10611049575050565b601f0160209004906000526020600020908101906110679190611018565b50565b80356001600160a01b038116811461108157600080fd5b919050565b60008060008060008060a0878903121561109f57600080fd5b6110a88761106a565b955060208701359450604087013593506110c46060880161106a565b9250608087013567ffffffffffffffff808211156110e157600080fd5b818901915089601f8301126110f557600080fd5b81358181111561110457600080fd5b8a602082850101111561111657600080fd5b6020830194508093505050509295509295509295565b634e487b7160e01b600052604160045260246000fd5b604051601f8201601f1916810167ffffffffffffffff8111828210171561116b5761116b61112c565b604052919050565b600067ffffffffffffffff82111561118d5761118d61112c565b5060051b60200190565b600082601f8301126111a857600080fd5b813560206111bd6111b883611173565b611142565b82815260059290921b840181019181810190868411156111dc57600080fd5b8286015b848110156111fe576111f18161106a565b83529183019183016111e0565b509695505050505050565b6000601f838184011261121b57600080fd5b8235602061122b6111b883611173565b82815260059290921b8501810191818101908784111561124a57600080fd5b8287015b848110156112e157803567ffffffffffffffff8082111561126f5760008081fd5b818a0191508a603f8301126112845760008081fd5b8582013560408282111561129a5761129a61112c565b6112ab828b01601f19168901611142565b92508183528c818386010111156112c25760008081fd5b818185018985013750600090820187015284525091830191830161124e565b50979650505050505050565b6000806000806080858703121561130357600080fd5b8435935060208501359250604085013567ffffffffffffffff8082111561132957600080fd5b61133588838901611197565b9350606087013591508082111561134b57600080fd5b5061135887828801611209565b91505092959194509250565b60006020828403121561137657600080fd5b61137f8261106a565b9392505050565b600080600080600060a0868803121561139e57600080fd5b6113a78661106a565b94506020860135935060408601359250606086013567ffffffffffffffff808211156113d257600080fd5b6113de89838a01611197565b935060808801359150808211156113f457600080fd5b5061140188828901611209565b9150509295509295909350565b600181811c9082168061142257607f821691505b6020821081141561144357634e487b7160e01b600052602260045260246000fd5b50919050565b634e487b7160e01b600052603260045260246000fd5b60005b8381101561147a578181015183820152602001611462565b838111156109925750506000910152565b6000825161149d81846020870161145f565b9190910192915050565b634e487b7160e01b600052601160045260246000fd5b60006000198214156114d1576114d16114a7565b5060010190565b600082198211156114eb576114eb6114a7565b500190565b60006020828403121561150257600080fd5b8151801515811461137f57600080fd5b60006020828403121561152457600080fd5b5051919050565b60008282101561153d5761153d6114a7565b500390565b600060018060a01b03808816835280871660208401525084604083015260a0606083015283518060a084015261157f8160c085016020880161145f565b61ffff93909316608083015250601f91909101601f19160160c00194935050505056fea264697066735822122028e2b9b9b1ef6bf1e3c2183c07f17fcd436189b31e0ce49e3d0a8870c15758bf64736f6c634300080a0033",
    "linkReferences": {}
  },
  "methodIdentifiers": {
    "ADDRESSES_PROVIDER()": "0542975c",
    "POOL()": "7535d246",
    "executeOperation(address,uint256,uint256,address,bytes)": "1b11d0ff",
    "executor()": "c34c08e5",
    "getBalance(address)": "f8b2cb4f",
    "owner()": "8da5cb5b",
    "swapWithFlashLoan(address,uint256,uint256,address[],bytes[])": "c7735f90",
    "swapWithoutFlashLoan(uint256,uint256,address[],bytes[])": "4686fb9e",
    "withdraw(address)": "51cff8d9"
  },
  "id": 6
}