{
  "abi": [
    {
      "inputs": [
        {
          "internalType": "address[]",
          "name": "_targets",
          "type": "address[]"
        },
        {
          "internalType": "bytes[]",
          "name": "_payloads",
          "type": "bytes[]"
        },
        {
          "internalType": "address",
          "name": "token",
          "type": "address"
        }
      ],
      "name": "swapWithoutFlashLoan",
      "outputs": [
        {
          "internalType": "uint256",
          "name": "",
          "type": "uint256"
        }
      ],
      "stateMutability": "payable",
      "type": "function"
    }
  ],
  "bytecode": {
    "object": "0x608060405234801561001057600080fd5b5061045a806100206000396000f3fe60806040526004361061001e5760003560e01c80635cdffdca14610023575b600080fd5b610036610031366004610277565b61004c565b60405161004391906103d4565b60405180910390f35b6000805b8451811015610112576000606086838151811061006957fe5b60200260200101516001600160a01b031686848151811061008657fe5b602002602001015160405161009b9190610362565b6000604051808303816000865af19150503d80600081146100d8576040519150601f19603f3d011682016040523d82523d6000602084013e6100dd565b606091505b5091509150816101085760405162461bcd60e51b81526004016100ff906103af565b60405180910390fd5b5050600101610050565b506040516370a0823160e01b81526001600160a01b038316906370a082319061013f90309060040161039b565b60206040518083038186803b15801561015757600080fd5b505afa15801561016b573d6000803e3d6000fd5b505050506040513d601f19601f8201168201806040525081019061018f919061034a565b949350505050565b80356001600160a01b03811681146101ae57600080fd5b92915050565b6000601f83818401126101c5578182fd5b82356101d86101d382610404565b6103dd565b818152925060208084019085810160005b8481101561026b578135880189603f82011261020457600080fd5b8381013567ffffffffffffffff81111561021d57600080fd5b61022e818901601f191686016103dd565b81815260408c8184860101111561024457600080fd5b828185018884013750600091810186019190915285525092820192908201906001016101e9565b50505050505092915050565b60008060006060848603121561028b578283fd5b833567ffffffffffffffff808211156102a2578485fd5b818601915086601f8301126102b5578485fd5b81356102c36101d382610404565b80828252602080830192508086018b8283870289010111156102e357898afd5b8996505b8487101561030d576102f98c82610197565b8452600196909601959281019281016102e7565b509097508801359350505080821115610324578384fd5b50610331868287016101b4565b9250506103418560408601610197565b90509250925092565b60006020828403121561035b578081fd5b5051919050565b60008251815b818110156103825760208186018101518583015201610368565b818111156103905782828501525b509190910192915050565b6001600160a01b0391909116815260200190565b6020808252600b908201526a4661696c6564206865726560a81b604082015260600190565b90815260200190565b60405181810167ffffffffffffffff811182821017156103fc57600080fd5b604052919050565b600067ffffffffffffffff82111561041a578081fd5b506020908102019056fea26469706673582212204135bebfda2af6e9a5ec538d8d04d2af3713423c2d2e036142049b7b0599695264736f6c634300060c0033",
    "linkReferences": {}
  },
  "methodIdentifiers": {
    "swapWithoutFlashLoan(address[],bytes[],address)": "5cdffdca"
  },
  "id": 11
}