{
  "abi": [
    {
      "inputs": [
        {
          "internalType": "address",
          "name": "_executor",
          "type": "address"
        },
        {
          "internalType": "address",
          "name": "_weth",
          "type": "address"
        },
        {
          "internalType": "address",
          "name": "_provider",
          "type": "address"
        }
      ],
      "stateMutability": "payable",
      "type": "constructor"
    },
    {
      "inputs": [],
      "name": "ADDRESSES_PROVIDER",
      "outputs": [
        {
          "internalType": "contract ILendingPoolAddressesProvider",
          "name": "",
          "type": "address"
        }
      ],
      "stateMutability": "view",
      "type": "function"
    },
    {
      "inputs": [],
      "name": "LENDING_POOL",
      "outputs": [
        {
          "internalType": "contract ILendingPool",
          "name": "",
          "type": "address"
        }
      ],
      "stateMutability": "view",
      "type": "function"
    },
    {
      "inputs": [
        {
          "internalType": "address payable",
          "name": "_to",
          "type": "address"
        },
        {
          "internalType": "uint256",
          "name": "_value",
          "type": "uint256"
        },
        {
          "internalType": "bytes",
          "name": "_data",
          "type": "bytes"
        }
      ],
      "name": "call",
      "outputs": [
        {
          "internalType": "bytes",
          "name": "",
          "type": "bytes"
        }
      ],
      "stateMutability": "payable",
      "type": "function"
    },
    {
      "inputs": [
        {
          "internalType": "address[]",
          "name": "assets",
          "type": "address[]"
        },
        {
          "internalType": "uint256[]",
          "name": "amounts",
          "type": "uint256[]"
        },
        {
          "internalType": "uint256[]",
          "name": "premiums",
          "type": "uint256[]"
        },
        {
          "internalType": "address",
          "name": "initiator",
          "type": "address"
        },
        {
          "internalType": "bytes",
          "name": "params",
          "type": "bytes"
        }
      ],
      "name": "executeOperation",
      "outputs": [
        {
          "internalType": "bool",
          "name": "",
          "type": "bool"
        }
      ],
      "stateMutability": "nonpayable",
      "type": "function"
    },
    {
      "inputs": [],
      "name": "executor",
      "outputs": [
        {
          "internalType": "address",
          "name": "",
          "type": "address"
        }
      ],
      "stateMutability": "view",
      "type": "function"
    },
    {
      "inputs": [],
      "name": "owner",
      "outputs": [
        {
          "internalType": "address payable",
          "name": "",
          "type": "address"
        }
      ],
      "stateMutability": "view",
      "type": "function"
    },
    {
      "inputs": [
        {
          "internalType": "address[]",
          "name": "_tokens",
          "type": "address[]"
        },
        {
          "internalType": "uint256",
          "name": "_ethAmountToCoinbase",
          "type": "uint256"
        },
        {
          "internalType": "uint256[]",
          "name": "_flashLoanAmounts",
          "type": "uint256[]"
        },
        {
          "internalType": "uint256[]",
          "name": "_modes",
          "type": "uint256[]"
        },
        {
          "internalType": "address[]",
          "name": "_targets",
          "type": "address[]"
        },
        {
          "internalType": "bytes[]",
          "name": "_payloads",
          "type": "bytes[]"
        }
      ],
      "name": "swapWithFlashLoan",
      "outputs": [],
      "stateMutability": "payable",
      "type": "function"
    },
    {
      "inputs": [
        {
          "internalType": "uint256",
          "name": "_ethAmountToCoinbase",
          "type": "uint256"
        },
        {
          "internalType": "address[]",
          "name": "_targets",
          "type": "address[]"
        },
        {
          "internalType": "bytes[]",
          "name": "_payloads",
          "type": "bytes[]"
        }
      ],
      "name": "swapWithoutFlashLoan",
      "outputs": [],
      "stateMutability": "payable",
      "type": "function"
    },
    {
      "stateMutability": "payable",
      "type": "receive"
    }
  ],
  "bytecode": {
    "object": "0x61010060405260405162001568380380620015688339810160408190526200002791620001a2565b80806001600160a01b03166080816001600160a01b031660601b81525050806001600160a01b0316630261bf8b6040518163ffffffff1660e01b815260040160206040518083038186803b1580156200007f57600080fd5b505afa15801562000094573d6000803e3d6000fd5b505050506040513d601f19601f82011682018060405250810190620000ba919062000172565b606090811b6001600160601b031990811660a052600080546001600160a01b0319166001600160a01b03871617905533821b60c0529085901b1660e052503415620001695760008054906101000a90046001600160a01b03166001600160a01b031663d0e30db0346040518263ffffffff1660e01b81526004016000604051808303818588803b1580156200014e57600080fd5b505af115801562000163573d6000803e3d6000fd5b50505050505b5050506200020e565b60006020828403121562000184578081fd5b81516001600160a01b03811681146200019b578182fd5b9392505050565b600080600060608486031215620001b7578182fd5b8351620001c481620001f5565b6020850151909350620001d781620001f5565b6040850151909250620001ea81620001f5565b809150509250925092565b6001600160a01b03811681146200020b57600080fd5b50565b60805160601c60a05160601c60c05160601c60e05160601c6112fa6200026e6000398061029952806104c152806107a65280610a6552508061019b528061025452508061040a5280610779528061089252508061016c52506112fa6000f3fe60806040526004361061007f5760003560e01c80639303038d1161004e5780639303038d14610118578063b4dcfc771461012d578063bc19815f14610142578063c34c08e51461015557610086565b80630542975c1461008b5780636dbf2fa0146100b65780638da5cb5b146100d6578063920f5c84146100eb57610086565b3661008657005b600080fd5b34801561009757600080fd5b506100a061016a565b6040516100ad919061104f565b60405180910390f35b6100c96100c4366004610c96565b61018e565b6040516100ad91906111e2565b3480156100e257600080fd5b506100a0610252565b3480156100f757600080fd5b5061010b610106366004610cf0565b610276565b6040516100ad91906111d7565b61012b610126366004610f44565b6104b6565b005b34801561013957600080fd5b506100a0610777565b61012b610150366004610dc6565b61079b565b34801561016157600080fd5b506100a0610a63565b7f000000000000000000000000000000000000000000000000000000000000000081565b6060336001600160a01b037f000000000000000000000000000000000000000000000000000000000000000016146101c557600080fd5b6001600160a01b0385166101d857600080fd5b60006060866001600160a01b03168686866040516101f7929190611023565b60006040518083038185875af1925050503d8060008114610234576040519150601f19603f3d011682016040523d82523d6000602084013e610239565b606091505b50915091508161024857600080fd5b9695505050505050565b7f000000000000000000000000000000000000000000000000000000000000000081565b60008054600160a01b900460ff161561028e57600080fd5b326001600160a01b037f000000000000000000000000000000000000000000000000000000000000000016146102c357600080fd5b6000805460ff60a01b1916600160a01b1790556060806102e584860186610eab565b9150915060005b8251811015610392576000606084838151811061030557fe5b60200260200101516001600160a01b031684848151811061032257fe5b60200260200101516040516103379190611033565b6000604051808303816000865af19150503d8060008114610374576040519150601f19603f3d011682016040523d82523d6000602084013e610379565b606091505b50915091508161038857600080fd5b50506001016102ec565b5060005b8b8110156104a35760006103d78a8a848181106103af57fe5b905060200201358d8d858181106103c257fe5b90506020020135610a8790919063ffffffff16565b90508d8d838181106103e557fe5b90506020020160208101906103fa9190610c7a565b6001600160a01b031663095ea7b37f0000000000000000000000000000000000000000000000000000000000000000836040518363ffffffff1660e01b815260040161044792919061111f565b602060405180830381600087803b15801561046157600080fd5b505af1158015610475573d6000803e3d6000fd5b505050506040513d601f19601f820116820180604052508101906104999190610f0c565b5050600101610396565b5060019c9b505050505050505050505050565b336001600160a01b037f000000000000000000000000000000000000000000000000000000000000000016146104eb57600080fd5b6000805460ff60a01b1916600160a01b178082556040516370a0823160e01b81526001600160a01b03909116906370a082319061052c90309060040161104f565b60206040518083038186803b15801561054457600080fd5b505afa158015610558573d6000803e3d6000fd5b505050506040513d601f19601f8201168201806040525081019061057c9190610f2c565b905060005b8351811015610627576000606085838151811061059a57fe5b60200260200101516001600160a01b03168584815181106105b757fe5b60200260200101516040516105cc9190611033565b6000604051808303816000865af19150503d8060008114610609576040519150601f19603f3d011682016040523d82523d6000602084013e61060e565b606091505b50915091508161061d57600080fd5b5050600101610581565b50600080546040516370a0823160e01b81526001600160a01b03909116906370a082319061065990309060040161104f565b60206040518083038186803b15801561067157600080fd5b505afa158015610685573d6000803e3d6000fd5b505050506040513d601f19601f820116820180604052508101906106a99190610f2c565b905084820181116106b957600080fd5b846106c5575050610772565b478581101561073357600054604051632e1a7d4d60e01b81526001600160a01b0390911690632e1a7d4d9061070090848a039060040161122c565b600060405180830381600087803b15801561071a57600080fd5b505af115801561072e573d6000803e3d6000fd5b505050505b604051419087156108fc029088906000818181858888f19350505050158015610760573d6000803e3d6000fd5b50506000805460ff60a01b1916905550505b505050565b7f000000000000000000000000000000000000000000000000000000000000000081565b336001600160a01b037f000000000000000000000000000000000000000000000000000000000000000016146107d057600080fd5b606082826040516020016107e5929190611138565b60408051601f1981840301815290829052600080546370a0823160e01b8452919350916001600160a01b03909116906370a082319061082890309060040161104f565b60206040518083038186803b15801561084057600080fd5b505afa158015610854573d6000803e3d6000fd5b505050506040513d601f19601f820116820180604052508101906108789190610f2c565b60405163ab9c4b5d60e01b81529091506001600160a01b037f0000000000000000000000000000000000000000000000000000000000000000169063ab9c4b5d906108da9030908f908f908e908e908e908e9087908d90600090600401611063565b600060405180830381600087803b1580156108f457600080fd5b505af1158015610908573d6000803e3d6000fd5b5050600080546040516370a0823160e01b81529193506001600160a01b031691506370a082319061093d90309060040161104f565b60206040518083038186803b15801561095557600080fd5b505afa158015610969573d6000803e3d6000fd5b505050506040513d601f19601f8201168201806040525081019061098d9190610f2c565b9050898201811161099d57600080fd5b896109aa57505050610a58565b478a811015610a1857600054604051632e1a7d4d60e01b81526001600160a01b0390911690632e1a7d4d906109e590848f039060040161122c565b600060405180830381600087803b1580156109ff57600080fd5b505af1158015610a13573d6000803e3d6000fd5b505050505b60405141908c156108fc02908d906000818181858888f19350505050158015610a45573d6000803e3d6000fd5b50506000805460ff60a01b191690555050505b505050505050505050565b7f000000000000000000000000000000000000000000000000000000000000000081565b600082820183811015610ab55760405162461bcd60e51b8152600401610aac906111f5565b60405180910390fd5b9392505050565b60008083601f840112610acd578182fd5b50813567ffffffffffffffff811115610ae4578182fd5b6020830191508360208083028501011115610afe57600080fd5b9250929050565b600082601f830112610b15578081fd5b8135610b28610b238261125c565b611235565b818152915060208083019084810181840286018201871015610b4957600080fd5b60005b84811015610b71578135610b5f816112ac565b84529282019290820190600101610b4c565b505050505092915050565b6000601f8381840112610b8d578182fd5b8235610b9b610b238261125c565b818152925060208084019085810160005b84811015610c2e578135880189603f820112610bc757600080fd5b8381013567ffffffffffffffff811115610be057600080fd5b610bf1818901601f19168601611235565b81815260408c81848601011115610c0757600080fd5b82818501888401375060009181018601919091528552509282019290820190600101610bac565b50505050505092915050565b60008083601f840112610c4b578182fd5b50813567ffffffffffffffff811115610c62578182fd5b602083019150836020828501011115610afe57600080fd5b600060208284031215610c8b578081fd5b8135610ab5816112ac565b60008060008060608587031215610cab578283fd5b8435610cb6816112ac565b935060208501359250604085013567ffffffffffffffff811115610cd8578283fd5b610ce487828801610c3a565b95989497509550505050565b600080600080600080600080600060a08a8c031215610d0d578485fd5b893567ffffffffffffffff80821115610d24578687fd5b610d308d838e01610abc565b909b50995060208c0135915080821115610d48578687fd5b610d548d838e01610abc565b909950975060408c0135915080821115610d6c578687fd5b610d788d838e01610abc565b909750955060608c01359150610d8d826112ac565b90935060808b01359080821115610da2578384fd5b50610daf8c828d01610c3a565b915080935050809150509295985092959850929598565b600080600080600080600080600060c08a8c031215610de3578485fd5b893567ffffffffffffffff80821115610dfa578687fd5b610e068d838e01610abc565b909b50995060208c0135985060408c0135915080821115610e25578687fd5b610e318d838e01610abc565b909850965060608c0135915080821115610e49578586fd5b610e558d838e01610abc565b909650945060808c0135915080821115610e6d578384fd5b610e798d838e01610b05565b935060a08c0135915080821115610e8e578283fd5b50610e9b8c828d01610b7c565b9150509295985092959850929598565b60008060408385031215610ebd578182fd5b823567ffffffffffffffff80821115610ed4578384fd5b610ee086838701610b05565b93506020850135915080821115610ef5578283fd5b50610f0285828601610b7c565b9150509250929050565b600060208284031215610f1d578081fd5b81518015158114610ab5578182fd5b600060208284031215610f3d578081fd5b5051919050565b600080600060608486031215610f58578283fd5b83359250602084013567ffffffffffffffff80821115610f76578384fd5b610f8287838801610b05565b93506040860135915080821115610f97578283fd5b50610fa486828701610b7c565b9150509250925092565b6001600160a01b03169052565b81835260006001600160fb1b03831115610fd3578081fd5b6020830280836020870137939093016020019283525090919050565b6000815180845261100781602086016020860161127c565b601f01601f19169290920160200192915050565b61ffff169052565b6000828483379101908152919050565b6000825161104581846020870161127c565b9190910192915050565b6001600160a01b0391909116815260200190565b6001600160a01b038b8116825260e060208084018290529083018b90526000918c916101008501845b8e8110156110b357843561109f816112ac565b84168252938201939082019060010161108c565b5085810360408701526110c7818d8f610fbb565b935050505082810360608401526110df81888a610fbb565b90506110ee6080840187610fae565b82810360a08401526111008186610fef565b91505061111060c083018461101b565b9b9a5050505050505050505050565b6001600160a01b03929092168252602082015260400190565b604080825283519082018190526000906020906060840190828701845b8281101561117857611168848351610fae565b9284019290840190600101611155565b5050508381038285015280855161118f818461122c565b91508192508381028201848801865b838110156111c85785830385526111b6838351610fef565b9487019492509086019060010161119e565b50909998505050505050505050565b901515815260200190565b600060208252610ab56020830184610fef565b6020808252601b908201527f536166654d6174683a206164646974696f6e206f766572666c6f770000000000604082015260600190565b90815260200190565b60405181810167ffffffffffffffff8111828210171561125457600080fd5b604052919050565b600067ffffffffffffffff821115611272578081fd5b5060209081020190565b60005b8381101561129757818101518382015260200161127f565b838111156112a6576000848401525b50505050565b6001600160a01b03811681146112c157600080fd5b5056fea2646970667358221220b6a9eb00f341c7978ec676fac4b83e9e24c01f2a74d4449fe1f892ec41d4648364736f6c634300060c0033",
    "linkReferences": {}
  },
  "methodIdentifiers": {
    "ADDRESSES_PROVIDER()": "0542975c",
    "LENDING_POOL()": "b4dcfc77",
    "call(address,uint256,bytes)": "6dbf2fa0",
    "executeOperation(address[],uint256[],uint256[],address,bytes)": "920f5c84",
    "executor()": "c34c08e5",
    "owner()": "8da5cb5b",
    "swapWithFlashLoan(address[],uint256,uint256[],uint256[],address[],bytes[])": "bc19815f",
    "swapWithoutFlashLoan(uint256,address[],bytes[])": "9303038d"
  },
  "id": 9
}